{
  "contractName": "RenW",
  "abi": [
    {
      "constant": true,
      "inputs": [
        {
          "name": "",
          "type": "uint256"
        }
      ],
      "name": "stock",
      "outputs": [
        {
          "name": "CompanyName",
          "type": "string"
        },
        {
          "name": "ProjectName",
          "type": "string"
        },
        {
          "name": "CompanyID",
          "type": "uint256"
        },
        {
          "name": "amount",
          "type": "uint256"
        },
        {
          "name": "quantity",
          "type": "uint256"
        }
      ],
      "payable": false,
      "stateMutability": "view",
      "type": "function"
    },
    {
      "constant": true,
      "inputs": [
        {
          "name": "",
          "type": "uint256"
        }
      ],
      "name": "listing",
      "outputs": [
        {
          "name": "PersonName",
          "type": "string"
        },
        {
          "name": "stockID",
          "type": "uint256"
        },
        {
          "name": "PersonID",
          "type": "uint256"
        },
        {
          "name": "CompanyID",
          "type": "uint256"
        },
        {
          "name": "amount",
          "type": "uint256"
        }
      ],
      "payable": false,
      "stateMutability": "view",
      "type": "function"
    },
    {
      "constant": true,
      "inputs": [],
      "name": "owner",
      "outputs": [
        {
          "name": "",
          "type": "address"
        }
      ],
      "payable": false,
      "stateMutability": "view",
      "type": "function"
    },
    {
      "constant": false,
      "inputs": [],
      "name": "getRandomNumber",
      "outputs": [
        {
          "name": "",
          "type": "uint256"
        }
      ],
      "payable": false,
      "stateMutability": "nonpayable",
      "type": "function"
    },
    {
      "constant": false,
      "inputs": [
        {
          "name": "_Name",
          "type": "string"
        },
        {
          "name": "_projectName",
          "type": "string"
        },
        {
          "name": "_amount",
          "type": "uint256"
        },
        {
          "name": "_quantity",
          "type": "uint256"
        }
      ],
      "name": "createListing",
      "outputs": [],
      "payable": false,
      "stateMutability": "nonpayable",
      "type": "function"
    },
    {
      "constant": false,
      "inputs": [
        {
          "name": "_listingIndex",
          "type": "uint256"
        }
      ],
      "name": "buyListing",
      "outputs": [],
      "payable": false,
      "stateMutability": "nonpayable",
      "type": "function"
    },
    {
      "constant": false,
      "inputs": [],
      "name": "getTime",
      "outputs": [
        {
          "name": "",
          "type": "uint256"
        }
      ],
      "payable": false,
      "stateMutability": "nonpayable",
      "type": "function"
    }
  ],
  "bytecode": "0x6000808055600390815560644442010660055560c060405260808190527f536169000000000000000000000000000000000000000000000000000000000060a090815261004f916007919061009c565b5062011110600855614b0160095561006e640100000000610083810204565b600c5534801561007d57600080fd5b50610134565b6005546000906064904201440106600581905590505b90565b828054600181600116156101000203166002900490600052602060002090601f016020900481019282601f106100dd57805160ff191683800117855561010a565b8280016001018555821561010a579182015b8281111561010a5782518255916020019190600101906100ef565b5061011692915061011a565b5090565b61009991905b808211156101165760008155600101610120565b610a42806101436000396000f3fe6080604052600436106100825763ffffffff7c01000000000000000000000000000000000000000000000000000000006000350416630ef7869481146100875780634884f459146101c8578063557ed1ba146101f257806383cf10211461021957806384a184de146103365780638da5cb5b146103f4578063dbdff2c114610432575b600080fd5b34801561009357600080fd5b506101c6600480360360808110156100aa57600080fd5b8101906020810181356401000000008111156100c557600080fd5b8201836020820111156100d757600080fd5b803590602001918460018302840111640100000000831117156100f957600080fd5b91908080601f016020809104026020016040519081016040528093929190818152602001838380828437600092019190915250929594936020810193503591505064010000000081111561014c57600080fd5b82018360208201111561015e57600080fd5b8035906020019184600183028401116401000000008311171561018057600080fd5b91908080601f0160208091040260200160405190810160405280939291908181526020018383808284376000920191909152509295505082359350505060200135610447565b005b3480156101d457600080fd5b506101c6600480360360208110156101eb57600080fd5b503561064b565b3480156101fe57600080fd5b506102076106cc565b60408051918252519081900360200190f35b34801561022557600080fd5b506102436004803603602081101561023c57600080fd5b50356106d6565b604051808060200180602001868152602001858152602001848152602001838103835288818151815260200191508051906020019080838360005b8381101561029657818101518382015260200161027e565b50505050905090810190601f1680156102c35780820380516001836020036101000a031916815260200191505b50838103825287518152875160209182019189019080838360005b838110156102f65781810151838201526020016102de565b50505050905090810190601f1680156103235780820380516001836020036101000a031916815260200191505b5097505050505050505060405180910390f35b34801561034257600080fd5b506103606004803603602081101561035957600080fd5b5035610822565b6040518080602001868152602001858152602001848152602001838152602001828103825287818151815260200191508051906020019080838360005b838110156103b557818101518382015260200161039d565b50505050905090810190601f1680156103e25780820380516001836020036101000a031916815260200191505b50965050505050505060405180910390f35b34801561040057600080fd5b506104096108d5565b6040805173ffffffffffffffffffffffffffffffffffffffff9092168252519081900360200190f35b34801561043e57600080fd5b506102076108f1565b6040805160a0810182528581526020808201869052600954828401526060820185905260808201849052600080548152600182529290922081518051929391926104949284920190610909565b5060208281015180516104ad9260018501920190610909565b50604082015160028201556060820151600382015560809091015160049091015580828115156104d957fe5b04600b55600a82905560005b818160ff16101561063b57600c8054600190810190915560408051600080548152602084815290839020805460029581161561010002600019011694909404601f8101829004909102820160c090810190935260a08201818152919384939091908401828280156105975780601f1061056c57610100808354040283529160200191610597565b820191906000526020600020905b81548152906001019060200180831161057a57829003601f168201915b50505050508152602001600c54815260200160095481526020016001600080548152602001908152602001600020600201548152602001600b54815250600260008360ff1681526020019081526020016000206000820151816000019080519060200190610606929190610909565b5060208201516001808301919091556040830151600283015560608301516003830155608090920151600490910155016104e5565b5050600080546001019055505050565b6008546000828152600260208190526040909120808201929092556007805461068593926000196101006001841615020190911604610987565b50600b547fa6eef7e35abe7026729641147f7915573c7e97b47efa546f5f6e3230263bcb4c8054829003905560009182526002602052604090912060040180549091019055565b4260048190555b90565b60016020818152600092835260409283902080548451600294821615610100026000190190911693909304601f81018390048302840183019094528383529283918301828280156107685780601f1061073d57610100808354040283529160200191610768565b820191906000526020600020905b81548152906001019060200180831161074b57829003601f168201915b505050505090806001018054600181600116156101000203166002900480601f0160208091040260200160405190810160405280929190818152602001828054600181600116156101000203166002900480156108065780601f106107db57610100808354040283529160200191610806565b820191906000526020600020905b8154815290600101906020018083116107e957829003601f168201915b5050505050908060020154908060030154908060040154905085565b600260208181526000928352604092839020805484516001821615610100026000190190911693909304601f81018390048302840183019094528383529283918301828280156108b35780601f10610888576101008083540402835291602001916108b3565b820191906000526020600020905b81548152906001019060200180831161089657829003601f168201915b5050505050908060010154908060020154908060030154908060040154905085565b60065473ffffffffffffffffffffffffffffffffffffffff1681565b60055460009060649042014401066005819055905090565b828054600181600116156101000203166002900490600052602060002090601f016020900481019282601f1061094a57805160ff1916838001178555610977565b82800160010185558215610977579182015b8281111561097757825182559160200191906001019061095c565b506109839291506109fc565b5090565b828054600181600116156101000203166002900490600052602060002090601f016020900481019282601f106109c05780548555610977565b8280016001018555821561097757600052602060002091601f016020900482015b828111156109775782548255916001019190600101906109e1565b6106d391905b808211156109835760008155600101610a0256fea165627a7a723058200c2ad968a99bd833674792128bf48c33667f1f183a7051475e87d9c857671ac80029",
  "source": "// SPDX-License-Identifier: MIT\npragma solidity ^0.5.0;\n\ncontract RenW{\n    uint256 count = 0;\n    mapping(uint => StockListing) public stock;\n    mapping(uint => Listing) public listing;\n    uint256 _value = 0;\n    uint256 time;\n    uint256 seed = (block.timestamp + block.difficulty) % 100;\n    address public owner;\n    string UserName = \"Sai\";\n    uint256 UserID = 69904;\n    uint256 CompanyID = 19201;\n    uint256 Amount_Stock_Price;\n    uint256 individual_pricing;\n    uint256 randomNum = getRandomNumber();\n\n\n    struct StockListing {\n        string CompanyName;\n        string ProjectName;\n        uint256 CompanyID;\n        uint256 amount;\n        uint256 quantity;\n    }\n\n\n    struct Listing {\n        string PersonName;\n        uint256 stockID;\n        uint256 PersonID;\n        uint256 CompanyID;\n        uint256 amount;\n    }\n\n    modifier onlyOwner() {\n        require(msg.sender == owner, \"Only the contract owner can call this function\");\n        _;\n    }\n\n    function getRandomNumber() public returns (uint256) {\n        seed = (seed + block.timestamp + block.difficulty) % 100;\n        return seed;\n    }\n\n    function createListing(string memory _Name, string memory _projectName, uint256 _amount, uint256 _quantity) public {\n        stock[count] = StockListing(_Name, _projectName, CompanyID, _amount, _quantity);\n        individual_pricing = _amount / _quantity;\n        Amount_Stock_Price = _amount;\n        for(uint8 i = 0; i < _quantity; ++i){\n            randomNum++;\n            listing[i] = Listing(stock[count].CompanyName, randomNum, CompanyID, stock[count].CompanyID, individual_pricing);\n        }\n        count += 1;\n    }\n\n\n    function buyListing(uint256 _listingIndex) public {\n        listing[_listingIndex].PersonID = UserID;\n        listing[_listingIndex].PersonName = UserName;\n\n        stock[0].amount -= individual_pricing;\n        listing[_listingIndex].amount += individual_pricing;\n\n    }\n\n    function getTime() public returns (uint256){\n        time = block.timestamp;\n        return time;\n    }\n}",
  "sourcePath": "/Users/sainishwanth/Documents/HackVerse/truffle_proj/contracts/RenW.sol",
  "compiler": {
    "name": "solc",
    "version": "0.5.0+commit.1d4f565a.Emscripten.clang"
  },
  "schemaVersion": "3.0.1",
  "updatedAt": "2023-04-16T01:19:00.133Z",
  "devdoc": {
    "methods": {}
  },
  "userdoc": {
    "methods": {}
  }
}